{
  "_format": "hh-sol-artifact-1",
  "contractName": "BuyMyRoom",
  "sourceName": "contracts/BuyMyRoom.sol",
  "abi": [
    {
      "inputs": [],
      "stateMutability": "nonpayable",
      "type": "constructor"
    },
    {
      "inputs": [
        {
          "internalType": "address",
          "name": "sender",
          "type": "address"
        },
        {
          "internalType": "uint256",
          "name": "tokenId",
          "type": "uint256"
        },
        {
          "internalType": "address",
          "name": "owner",
          "type": "address"
        }
      ],
      "name": "ERC721IncorrectOwner",
      "type": "error"
    },
    {
      "inputs": [
        {
          "internalType": "address",
          "name": "operator",
          "type": "address"
        },
        {
          "internalType": "uint256",
          "name": "tokenId",
          "type": "uint256"
        }
      ],
      "name": "ERC721InsufficientApproval",
      "type": "error"
    },
    {
      "inputs": [
        {
          "internalType": "address",
          "name": "approver",
          "type": "address"
        }
      ],
      "name": "ERC721InvalidApprover",
      "type": "error"
    },
    {
      "inputs": [
        {
          "internalType": "address",
          "name": "operator",
          "type": "address"
        }
      ],
      "name": "ERC721InvalidOperator",
      "type": "error"
    },
    {
      "inputs": [
        {
          "internalType": "address",
          "name": "owner",
          "type": "address"
        }
      ],
      "name": "ERC721InvalidOwner",
      "type": "error"
    },
    {
      "inputs": [
        {
          "internalType": "address",
          "name": "receiver",
          "type": "address"
        }
      ],
      "name": "ERC721InvalidReceiver",
      "type": "error"
    },
    {
      "inputs": [
        {
          "internalType": "address",
          "name": "sender",
          "type": "address"
        }
      ],
      "name": "ERC721InvalidSender",
      "type": "error"
    },
    {
      "inputs": [
        {
          "internalType": "uint256",
          "name": "tokenId",
          "type": "uint256"
        }
      ],
      "name": "ERC721NonexistentToken",
      "type": "error"
    },
    {
      "anonymous": false,
      "inputs": [
        {
          "indexed": true,
          "internalType": "address",
          "name": "owner",
          "type": "address"
        },
        {
          "indexed": true,
          "internalType": "address",
          "name": "approved",
          "type": "address"
        },
        {
          "indexed": true,
          "internalType": "uint256",
          "name": "tokenId",
          "type": "uint256"
        }
      ],
      "name": "Approval",
      "type": "event"
    },
    {
      "anonymous": false,
      "inputs": [
        {
          "indexed": true,
          "internalType": "address",
          "name": "owner",
          "type": "address"
        },
        {
          "indexed": true,
          "internalType": "address",
          "name": "operator",
          "type": "address"
        },
        {
          "indexed": false,
          "internalType": "bool",
          "name": "approved",
          "type": "bool"
        }
      ],
      "name": "ApprovalForAll",
      "type": "event"
    },
    {
      "anonymous": false,
      "inputs": [
        {
          "indexed": false,
          "internalType": "uint256",
          "name": "tokenId",
          "type": "uint256"
        },
        {
          "indexed": false,
          "internalType": "uint256",
          "name": "price",
          "type": "uint256"
        },
        {
          "indexed": false,
          "internalType": "address",
          "name": "owner",
          "type": "address"
        }
      ],
      "name": "HouseListed",
      "type": "event"
    },
    {
      "anonymous": false,
      "inputs": [
        {
          "indexed": true,
          "internalType": "address",
          "name": "from",
          "type": "address"
        },
        {
          "indexed": true,
          "internalType": "address",
          "name": "to",
          "type": "address"
        },
        {
          "indexed": true,
          "internalType": "uint256",
          "name": "tokenId",
          "type": "uint256"
        }
      ],
      "name": "Transfer",
      "type": "event"
    },
    {
      "inputs": [],
      "name": "Airdrop",
      "outputs": [],
      "stateMutability": "nonpayable",
      "type": "function"
    },
    {
      "inputs": [
        {
          "internalType": "address",
          "name": "to",
          "type": "address"
        },
        {
          "internalType": "uint256",
          "name": "tokenId",
          "type": "uint256"
        }
      ],
      "name": "approve",
      "outputs": [],
      "stateMutability": "nonpayable",
      "type": "function"
    },
    {
      "inputs": [
        {
          "internalType": "address",
          "name": "owner",
          "type": "address"
        }
      ],
      "name": "balanceOf",
      "outputs": [
        {
          "internalType": "uint256",
          "name": "",
          "type": "uint256"
        }
      ],
      "stateMutability": "view",
      "type": "function"
    },
    {
      "inputs": [
        {
          "internalType": "uint256",
          "name": "id",
          "type": "uint256"
        }
      ],
      "name": "buyHouse",
      "outputs": [],
      "stateMutability": "nonpayable",
      "type": "function"
    },
    {
      "inputs": [
        {
          "internalType": "uint256",
          "name": "id",
          "type": "uint256"
        },
        {
          "internalType": "uint256",
          "name": "price",
          "type": "uint256"
        }
      ],
      "name": "changePrice",
      "outputs": [],
      "stateMutability": "nonpayable",
      "type": "function"
    },
    {
      "inputs": [
        {
          "internalType": "uint256",
          "name": "tokenId",
          "type": "uint256"
        }
      ],
      "name": "getApproved",
      "outputs": [
        {
          "internalType": "address",
          "name": "",
          "type": "address"
        }
      ],
      "stateMutability": "view",
      "type": "function"
    },
    {
      "inputs": [
        {
          "internalType": "uint256",
          "name": "id",
          "type": "uint256"
        }
      ],
      "name": "getHouseInfo",
      "outputs": [
        {
          "internalType": "address",
          "name": "",
          "type": "address"
        },
        {
          "internalType": "uint256",
          "name": "",
          "type": "uint256"
        },
        {
          "internalType": "uint256",
          "name": "",
          "type": "uint256"
        }
      ],
      "stateMutability": "view",
      "type": "function"
    },
    {
      "inputs": [],
      "name": "getHouses",
      "outputs": [
        {
          "components": [
            {
              "internalType": "uint256",
              "name": "id",
              "type": "uint256"
            },
            {
              "internalType": "address",
              "name": "owner",
              "type": "address"
            },
            {
              "internalType": "uint256",
              "name": "listedTimestamp",
              "type": "uint256"
            },
            {
              "internalType": "uint256",
              "name": "price",
              "type": "uint256"
            }
          ],
          "internalType": "struct BuyMyRoom.House[]",
          "name": "",
          "type": "tuple[]"
        }
      ],
      "stateMutability": "view",
      "type": "function"
    },
    {
      "inputs": [],
      "name": "getManager",
      "outputs": [
        {
          "internalType": "address",
          "name": "",
          "type": "address"
        }
      ],
      "stateMutability": "view",
      "type": "function"
    },
    {
      "inputs": [],
      "name": "helloworld",
      "outputs": [
        {
          "internalType": "string",
          "name": "",
          "type": "string"
        }
      ],
      "stateMutability": "pure",
      "type": "function"
    },
    {
      "inputs": [
        {
          "internalType": "uint256",
          "name": "",
          "type": "uint256"
        }
      ],
      "name": "houses",
      "outputs": [
        {
          "internalType": "uint256",
          "name": "id",
          "type": "uint256"
        },
        {
          "internalType": "address",
          "name": "owner",
          "type": "address"
        },
        {
          "internalType": "uint256",
          "name": "listedTimestamp",
          "type": "uint256"
        },
        {
          "internalType": "uint256",
          "name": "price",
          "type": "uint256"
        }
      ],
      "stateMutability": "view",
      "type": "function"
    },
    {
      "inputs": [
        {
          "internalType": "address",
          "name": "owner",
          "type": "address"
        },
        {
          "internalType": "address",
          "name": "operator",
          "type": "address"
        }
      ],
      "name": "isApprovedForAll",
      "outputs": [
        {
          "internalType": "bool",
          "name": "",
          "type": "bool"
        }
      ],
      "stateMutability": "view",
      "type": "function"
    },
    {
      "inputs": [],
      "name": "manager",
      "outputs": [
        {
          "internalType": "address",
          "name": "",
          "type": "address"
        }
      ],
      "stateMutability": "view",
      "type": "function"
    },
    {
      "inputs": [],
      "name": "myERC20",
      "outputs": [
        {
          "internalType": "contract MyERC20",
          "name": "",
          "type": "address"
        }
      ],
      "stateMutability": "view",
      "type": "function"
    },
    {
      "inputs": [],
      "name": "name",
      "outputs": [
        {
          "internalType": "string",
          "name": "",
          "type": "string"
        }
      ],
      "stateMutability": "view",
      "type": "function"
    },
    {
      "inputs": [
        {
          "internalType": "uint256",
          "name": "tokenId",
          "type": "uint256"
        }
      ],
      "name": "ownerOf",
      "outputs": [
        {
          "internalType": "address",
          "name": "",
          "type": "address"
        }
      ],
      "stateMutability": "view",
      "type": "function"
    },
    {
      "inputs": [
        {
          "internalType": "address",
          "name": "from",
          "type": "address"
        },
        {
          "internalType": "address",
          "name": "to",
          "type": "address"
        },
        {
          "internalType": "uint256",
          "name": "tokenId",
          "type": "uint256"
        }
      ],
      "name": "safeTransferFrom",
      "outputs": [],
      "stateMutability": "nonpayable",
      "type": "function"
    },
    {
      "inputs": [
        {
          "internalType": "address",
          "name": "from",
          "type": "address"
        },
        {
          "internalType": "address",
          "name": "to",
          "type": "address"
        },
        {
          "internalType": "uint256",
          "name": "tokenId",
          "type": "uint256"
        },
        {
          "internalType": "bytes",
          "name": "data",
          "type": "bytes"
        }
      ],
      "name": "safeTransferFrom",
      "outputs": [],
      "stateMutability": "nonpayable",
      "type": "function"
    },
    {
      "inputs": [
        {
          "internalType": "address",
          "name": "operator",
          "type": "address"
        },
        {
          "internalType": "bool",
          "name": "approved",
          "type": "bool"
        }
      ],
      "name": "setApprovalForAll",
      "outputs": [],
      "stateMutability": "nonpayable",
      "type": "function"
    },
    {
      "inputs": [
        {
          "internalType": "uint256",
          "name": "id",
          "type": "uint256"
        },
        {
          "internalType": "uint256",
          "name": "price",
          "type": "uint256"
        }
      ],
      "name": "setOnSale",
      "outputs": [],
      "stateMutability": "nonpayable",
      "type": "function"
    },
    {
      "inputs": [
        {
          "internalType": "bytes4",
          "name": "interfaceId",
          "type": "bytes4"
        }
      ],
      "name": "supportsInterface",
      "outputs": [
        {
          "internalType": "bool",
          "name": "",
          "type": "bool"
        }
      ],
      "stateMutability": "view",
      "type": "function"
    },
    {
      "inputs": [],
      "name": "symbol",
      "outputs": [
        {
          "internalType": "string",
          "name": "",
          "type": "string"
        }
      ],
      "stateMutability": "view",
      "type": "function"
    },
    {
      "inputs": [
        {
          "internalType": "uint256",
          "name": "tokenId",
          "type": "uint256"
        }
      ],
      "name": "tokenURI",
      "outputs": [
        {
          "internalType": "string",
          "name": "",
          "type": "string"
        }
      ],
      "stateMutability": "view",
      "type": "function"
    },
    {
      "inputs": [
        {
          "internalType": "address",
          "name": "from",
          "type": "address"
        },
        {
          "internalType": "address",
          "name": "to",
          "type": "address"
        },
        {
          "internalType": "uint256",
          "name": "tokenId",
          "type": "uint256"
        }
      ],
      "name": "transferFrom",
      "outputs": [],
      "stateMutability": "nonpayable",
      "type": "function"
    }
  ],
  "bytecode": "0x60806040523480156200001157600080fd5b506040518060400160405280600981526020017f486f757365204e465400000000000000000000000000000000000000000000008152506040518060400160405280600281526020017f484e00000000000000000000000000000000000000000000000000000000000081525081600090816200008f9190620004e3565b508060019081620000a19190620004e3565b50505033600660006101000a81548173ffffffffffffffffffffffffffffffffffffffff021916908373ffffffffffffffffffffffffffffffffffffffff160217905550604051620000f3906200025b565b620000fe906200067b565b604051809103906000f0801580156200011b573d6000803e3d6000fd5b50600760006101000a81548173ffffffffffffffffffffffffffffffffffffffff021916908373ffffffffffffffffffffffffffffffffffffffff16021790555060005b600a81101562000254576040518060800160405280828152602001600660009054906101000a900473ffffffffffffffffffffffffffffffffffffffff1673ffffffffffffffffffffffffffffffffffffffff1681526020014281526020016000815250600860008381526020019081526020016000206000820151816000015560208201518160010160006101000a81548173ffffffffffffffffffffffffffffffffffffffff021916908373ffffffffffffffffffffffffffffffffffffffff160217905550604082015181600201556060820151816003015590505080806200024b90620006e1565b9150506200015f565b506200072e565b61168280620032a583390190565b600081519050919050565b7f4e487b7100000000000000000000000000000000000000000000000000000000600052604160045260246000fd5b7f4e487b7100000000000000000000000000000000000000000000000000000000600052602260045260246000fd5b60006002820490506001821680620002eb57607f821691505b602082108103620003015762000300620002a3565b5b50919050565b60008190508160005260206000209050919050565b60006020601f8301049050919050565b600082821b905092915050565b6000600883026200036b7fffffffffffffffffffffffffffffffffffffffffffffffffffffffffffffffff826200032c565b6200037786836200032c565b95508019841693508086168417925050509392505050565b6000819050919050565b6000819050919050565b6000620003c4620003be620003b8846200038f565b62000399565b6200038f565b9050919050565b6000819050919050565b620003e083620003a3565b620003f8620003ef82620003cb565b84845462000339565b825550505050565b600090565b6200040f62000400565b6200041c818484620003d5565b505050565b5b8181101562000444576200043860008262000405565b60018101905062000422565b5050565b601f82111562000493576200045d8162000307565b62000468846200031c565b8101602085101562000478578190505b6200049062000487856200031c565b83018262000421565b50505b505050565b600082821c905092915050565b6000620004b86000198460080262000498565b1980831691505092915050565b6000620004d38383620004a5565b9150826002028217905092915050565b620004ee8262000269565b67ffffffffffffffff8111156200050a576200050962000274565b5b620005168254620002d2565b6200052382828562000448565b600060209050601f8311600181146200055b576000841562000546578287015190505b620005528582620004c5565b865550620005c2565b601f1984166200056b8662000307565b60005b8281101562000595578489015182556001820191506020850194506020810190506200056e565b86831015620005b55784890151620005b1601f891682620004a5565b8355505b6001600288020188555050505b505050505050565b600082825260208201905092915050565b7f5a4a55546f6b656e000000000000000000000000000000000000000000000000600082015250565b600062000613600883620005ca565b91506200062082620005db565b602082019050919050565b7f5a4a555400000000000000000000000000000000000000000000000000000000600082015250565b600062000663600483620005ca565b915062000670826200062b565b602082019050919050565b60006040820190508181036000830152620006968162000604565b90508181036020830152620006ab8162000654565b9050919050565b7f4e487b7100000000000000000000000000000000000000000000000000000000600052601160045260246000fd5b6000620006ee826200038f565b91507fffffffffffffffffffffffffffffffffffffffffffffffffffffffffffffffff8203620007235762000722620006b2565b5b600182019050919050565b612b67806200073e6000396000f3fe608060405234801561001057600080fd5b50600436106101585760003560e01c806370a08231116100c3578063b88d4fde1161007c578063b88d4fde146103ca578063c87b56dd146103e6578063d500958414610416578063e985e9c514610434578063eddc426914610464578063fd5f33ec1461048057610158565b806370a08231146102df57806395d89b411461030f578063a22cb4651461032d578063ad50f56d14610349578063aeda852f1461037b578063b3de019c146103ae57610158565b80632f2f4859116101155780632f2f48591461022f5780633f6b6f2e1461024d57806342842e0e14610257578063481c6a75146102735780636352211e146102915780636d3739c4146102c157610158565b806301ffc9a71461015d57806306fdde031461018d578063081812fc146101ab578063095ea7b3146101db5780630b8d27c3146101f757806323b872dd14610213575b600080fd5b61017760048036038101906101729190611f12565b61049e565b6040516101849190611f5a565b60405180910390f35b610195610580565b6040516101a29190612005565b60405180910390f35b6101c560048036038101906101c0919061205d565b610612565b6040516101d291906120cb565b60405180910390f35b6101f560048036038101906101f09190612112565b61062e565b005b610211600480360381019061020c9190612152565b610644565b005b61022d60048036038101906102289190612192565b61067e565b005b610237610780565b6040516102449190612005565b60405180910390f35b6102556107bd565b005b610271600480360381019061026c9190612192565b61084c565b005b61027b61086c565b60405161028891906120cb565b60405180910390f35b6102ab60048036038101906102a6919061205d565b610892565b6040516102b891906120cb565b60405180910390f35b6102c96108a4565b6040516102d69190612244565b60405180910390f35b6102f960048036038101906102f4919061225f565b6108ca565b604051610306919061229b565b60405180910390f35b610317610984565b6040516103249190612005565b60405180910390f35b610347600480360381019061034291906122e2565b610a16565b005b610363600480360381019061035e919061205d565b610a2c565b60405161037293929190612322565b60405180910390f35b6103956004803603810190610390919061205d565b610aa3565b6040516103a59493929190612359565b60405180910390f35b6103c860048036038101906103c39190612152565b610af3565b005b6103e460048036038101906103df91906124d3565b610b12565b005b61040060048036038101906103fb919061205d565b610b2f565b60405161040d9190612005565b60405180910390f35b61041e610b98565b60405161042b91906120cb565b60405180910390f35b61044e60048036038101906104499190612556565b610bc2565b60405161045b9190611f5a565b60405180910390f35b61047e6004803603810190610479919061205d565b610c56565b005b610488611002565b60405161049591906126b8565b60405180910390f35b60007f80ac58cd000000000000000000000000000000000000000000000000000000007bffffffffffffffffffffffffffffffffffffffffffffffffffffffff1916827bffffffffffffffffffffffffffffffffffffffffffffffffffffffff1916148061056957507f5b5e139f000000000000000000000000000000000000000000000000000000007bffffffffffffffffffffffffffffffffffffffffffffffffffffffff1916827bffffffffffffffffffffffffffffffffffffffffffffffffffffffff1916145b80610579575061057882611134565b5b9050919050565b60606000805461058f90612709565b80601f01602080910402602001604051908101604052809291908181526020018280546105bb90612709565b80156106085780601f106105dd57610100808354040283529160200191610608565b820191906000526020600020905b8154815290600101906020018083116105eb57829003601f168201915b5050505050905090565b600061061d8261119e565b5061062782611226565b9050919050565b610640828261063b611263565b61126b565b5050565b8060086000848152602001908152602001600020600301819055504260086000848152602001908152602001600020600201819055505050565b600073ffffffffffffffffffffffffffffffffffffffff168273ffffffffffffffffffffffffffffffffffffffff16036106f05760006040517f64a0ae920000000000000000000000000000000000000000000000000000000081526004016106e791906120cb565b60405180910390fd5b600061070483836106ff611263565b61127d565b90508373ffffffffffffffffffffffffffffffffffffffff168173ffffffffffffffffffffffffffffffffffffffff161461077a578382826040517f64283d7b0000000000000000000000000000000000000000000000000000000081526004016107719392919061273a565b60405180910390fd5b50505050565b60606040518060400160405280600b81526020017f68656c6c6f20776f726c64000000000000000000000000000000000000000000815250905090565b600760009054906101000a900473ffffffffffffffffffffffffffffffffffffffff1673ffffffffffffffffffffffffffffffffffffffff166321860a05336040518263ffffffff1660e01b815260040161081891906120cb565b600060405180830381600087803b15801561083257600080fd5b505af1158015610846573d6000803e3d6000fd5b50505050565b61086783838360405180602001604052806000815250610b12565b505050565b600660009054906101000a900473ffffffffffffffffffffffffffffffffffffffff1681565b600061089d8261119e565b9050919050565b600760009054906101000a900473ffffffffffffffffffffffffffffffffffffffff1681565b60008073ffffffffffffffffffffffffffffffffffffffff168273ffffffffffffffffffffffffffffffffffffffff160361093d5760006040517f89c62b6400000000000000000000000000000000000000000000000000000000815260040161093491906120cb565b60405180910390fd5b600360008373ffffffffffffffffffffffffffffffffffffffff1673ffffffffffffffffffffffffffffffffffffffff168152602001908152602001600020549050919050565b60606001805461099390612709565b80601f01602080910402602001604051908101604052809291908181526020018280546109bf90612709565b8015610a0c5780601f106109e157610100808354040283529160200191610a0c565b820191906000526020600020905b8154815290600101906020018083116109ef57829003601f168201915b5050505050905090565b610a28610a21611263565b8383611497565b5050565b60008060006008600085815260200190815260200160002060010160009054906101000a900473ffffffffffffffffffffffffffffffffffffffff16600860008681526020019081526020016000206003015460086000878152602001908152602001600020600201549250925092509193909250565b60086020528060005260406000206000915090508060000154908060010160009054906101000a900473ffffffffffffffffffffffffffffffffffffffff16908060020154908060030154905084565b8060086000848152602001908152602001600020600301819055505050565b610b1d84848461067e565b610b2984848484611606565b50505050565b6060610b3a8261119e565b506000610b456117bd565b90506000815111610b655760405180602001604052806000815250610b90565b80610b6f846117d4565b604051602001610b809291906127ad565b6040516020818303038152906040525b915050919050565b6000600660009054906101000a900473ffffffffffffffffffffffffffffffffffffffff16905090565b6000600560008473ffffffffffffffffffffffffffffffffffffffff1673ffffffffffffffffffffffffffffffffffffffff16815260200190815260200160002060008373ffffffffffffffffffffffffffffffffffffffff1673ffffffffffffffffffffffffffffffffffffffff16815260200190815260200160002060009054906101000a900460ff16905092915050565b6008600082815260200190815260200160002060030154600760009054906101000a900473ffffffffffffffffffffffffffffffffffffffff1673ffffffffffffffffffffffffffffffffffffffff166370a08231336040518263ffffffff1660e01b8152600401610cc891906120cb565b602060405180830381865afa158015610ce5573d6000803e3d6000fd5b505050506040513d601f19601f82011682018060405250810190610d0991906127e6565b10610fff576000612710600860008481526020019081526020016000206002015442610d359190612842565b6008600085815260200190815260200160002060030154610d569190612876565b610d6091906128e7565b9050610da16040518060400160405280600e81526020017f636f6d6d697373696f6e3a202573000000000000000000000000000000000000815250826118a2565b60026008600084815260200190815260200160002060030154610dc491906128e7565b811115610df15760026008600084815260200190815260200160002060030154610dee91906128e7565b90505b600760009054906101000a900473ffffffffffffffffffffffffffffffffffffffff1673ffffffffffffffffffffffffffffffffffffffff1663eb8571c833600660009054906101000a900473ffffffffffffffffffffffffffffffffffffffff16846040518463ffffffff1660e01b8152600401610e7293929190612918565b600060405180830381600087803b158015610e8c57600080fd5b505af1158015610ea0573d6000803e3d6000fd5b50505050600760009054906101000a900473ffffffffffffffffffffffffffffffffffffffff1673ffffffffffffffffffffffffffffffffffffffff1663eb8571c8336008600086815260200190815260200160002060010160009054906101000a900473ffffffffffffffffffffffffffffffffffffffff16846008600088815260200190815260200160002060030154610f3c9190612842565b6040518463ffffffff1660e01b8152600401610f5a93929190612918565b600060405180830381600087803b158015610f7457600080fd5b505af1158015610f88573d6000803e3d6000fd5b50505050336008600084815260200190815260200160002060010160006101000a81548173ffffffffffffffffffffffffffffffffffffffff021916908373ffffffffffffffffffffffffffffffffffffffff16021790555060006008600084815260200190815260200160002060030181905550505b50565b60606000600a67ffffffffffffffff811115611021576110206123a8565b5b60405190808252806020026020018201604052801561105a57816020015b611047611e5e565b81526020019060019003908161103f5790505b50905060005b600a81101561112c5760086000828152602001908152602001600020604051806080016040529081600082015481526020016001820160009054906101000a900473ffffffffffffffffffffffffffffffffffffffff1673ffffffffffffffffffffffffffffffffffffffff1673ffffffffffffffffffffffffffffffffffffffff1681526020016002820154815260200160038201548152505082828151811061110e5761110d61294f565b5b602002602001018190525080806111249061297e565b915050611060565b508091505090565b60007f01ffc9a7000000000000000000000000000000000000000000000000000000007bffffffffffffffffffffffffffffffffffffffffffffffffffffffff1916827bffffffffffffffffffffffffffffffffffffffffffffffffffffffff1916149050919050565b6000806111aa8361193e565b9050600073ffffffffffffffffffffffffffffffffffffffff168173ffffffffffffffffffffffffffffffffffffffff160361121d57826040517f7e273289000000000000000000000000000000000000000000000000000000008152600401611214919061229b565b60405180910390fd5b80915050919050565b60006004600083815260200190815260200160002060009054906101000a900473ffffffffffffffffffffffffffffffffffffffff169050919050565b600033905090565b611278838383600161197b565b505050565b6000806112898461193e565b9050600073ffffffffffffffffffffffffffffffffffffffff168373ffffffffffffffffffffffffffffffffffffffff16146112cb576112ca818486611b40565b5b600073ffffffffffffffffffffffffffffffffffffffff168173ffffffffffffffffffffffffffffffffffffffff161461135c5761130d60008560008061197b565b6001600360008373ffffffffffffffffffffffffffffffffffffffff1673ffffffffffffffffffffffffffffffffffffffff168152602001908152602001600020600082825403925050819055505b600073ffffffffffffffffffffffffffffffffffffffff168573ffffffffffffffffffffffffffffffffffffffff16146113df576001600360008773ffffffffffffffffffffffffffffffffffffffff1673ffffffffffffffffffffffffffffffffffffffff168152602001908152602001600020600082825401925050819055505b846002600086815260200190815260200160002060006101000a81548173ffffffffffffffffffffffffffffffffffffffff021916908373ffffffffffffffffffffffffffffffffffffffff160217905550838573ffffffffffffffffffffffffffffffffffffffff168273ffffffffffffffffffffffffffffffffffffffff167fddf252ad1be2c89b69c2b068fc378daa952ba7f163c4a11628f55a4df523b3ef60405160405180910390a4809150509392505050565b600073ffffffffffffffffffffffffffffffffffffffff168273ffffffffffffffffffffffffffffffffffffffff160361150857816040517f5b08ba180000000000000000000000000000000000000000000000000000000081526004016114ff91906120cb565b60405180910390fd5b80600560008573ffffffffffffffffffffffffffffffffffffffff1673ffffffffffffffffffffffffffffffffffffffff16815260200190815260200160002060008473ffffffffffffffffffffffffffffffffffffffff1673ffffffffffffffffffffffffffffffffffffffff16815260200190815260200160002060006101000a81548160ff0219169083151502179055508173ffffffffffffffffffffffffffffffffffffffff168373ffffffffffffffffffffffffffffffffffffffff167f17307eab39ab6107e8899845ad3d59bd9653f200f220920489ca2b5937696c31836040516115f99190611f5a565b60405180910390a3505050565b60008373ffffffffffffffffffffffffffffffffffffffff163b11156117b7578273ffffffffffffffffffffffffffffffffffffffff1663150b7a0261164a611263565b8685856040518563ffffffff1660e01b815260040161166c9493929190612a1b565b6020604051808303816000875af19250505080156116a857506040513d601f19601f820116820180604052508101906116a59190612a7c565b60015b61172c573d80600081146116d8576040519150601f19603f3d011682016040523d82523d6000602084013e6116dd565b606091505b50600081510361172457836040517f64a0ae9200000000000000000000000000000000000000000000000000000000815260040161171b91906120cb565b60405180910390fd5b805181602001fd5b63150b7a0260e01b7bffffffffffffffffffffffffffffffffffffffffffffffffffffffff1916817bffffffffffffffffffffffffffffffffffffffffffffffffffffffff1916146117b557836040517f64a0ae920000000000000000000000000000000000000000000000000000000081526004016117ac91906120cb565b60405180910390fd5b505b50505050565b606060405180602001604052806000815250905090565b6060600060016117e384611c04565b01905060008167ffffffffffffffff811115611802576118016123a8565b5b6040519080825280601f01601f1916602001820160405280156118345781602001600182028036833780820191505090505b509050600082602001820190505b600115611897578080600190039150507f3031323334353637383961626364656600000000000000000000000000000000600a86061a8153600a858161188b5761188a6128b8565b5b04945060008503611842575b819350505050919050565b61193a82826040516024016118b8929190612aa9565b6040516020818303038152906040527fb60e72cc000000000000000000000000000000000000000000000000000000007bffffffffffffffffffffffffffffffffffffffffffffffffffffffff19166020820180517bffffffffffffffffffffffffffffffffffffffffffffffffffffffff8381831617835250505050611d57565b5050565b60006002600083815260200190815260200160002060009054906101000a900473ffffffffffffffffffffffffffffffffffffffff169050919050565b80806119b45750600073ffffffffffffffffffffffffffffffffffffffff168273ffffffffffffffffffffffffffffffffffffffff1614155b15611ae85760006119c48461119e565b9050600073ffffffffffffffffffffffffffffffffffffffff168373ffffffffffffffffffffffffffffffffffffffff1614158015611a2f57508273ffffffffffffffffffffffffffffffffffffffff168173ffffffffffffffffffffffffffffffffffffffff1614155b8015611a425750611a408184610bc2565b155b15611a8457826040517fa9fbf51f000000000000000000000000000000000000000000000000000000008152600401611a7b91906120cb565b60405180910390fd5b8115611ae657838573ffffffffffffffffffffffffffffffffffffffff168273ffffffffffffffffffffffffffffffffffffffff167f8c5be1e5ebec7d5bd14f71427d1e84f3dd0314c0f7b2291e5b200ac8c7c3b92560405160405180910390a45b505b836004600085815260200190815260200160002060006101000a81548173ffffffffffffffffffffffffffffffffffffffff021916908373ffffffffffffffffffffffffffffffffffffffff16021790555050505050565b611b4b838383611d71565b611bff57600073ffffffffffffffffffffffffffffffffffffffff168373ffffffffffffffffffffffffffffffffffffffff1603611bc057806040517f7e273289000000000000000000000000000000000000000000000000000000008152600401611bb7919061229b565b60405180910390fd5b81816040517f177e802f000000000000000000000000000000000000000000000000000000008152600401611bf6929190612ad9565b60405180910390fd5b505050565b600080600090507a184f03e93ff9f4daa797ed6e38ed64bf6a1f0100000000000000008310611c62577a184f03e93ff9f4daa797ed6e38ed64bf6a1f0100000000000000008381611c5857611c576128b8565b5b0492506040810190505b6d04ee2d6d415b85acef81000000008310611c9f576d04ee2d6d415b85acef81000000008381611c9557611c946128b8565b5b0492506020810190505b662386f26fc100008310611cce57662386f26fc100008381611cc457611cc36128b8565b5b0492506010810190505b6305f5e1008310611cf7576305f5e1008381611ced57611cec6128b8565b5b0492506008810190505b6127108310611d1c576127108381611d1257611d116128b8565b5b0492506004810190505b60648310611d3f5760648381611d3557611d346128b8565b5b0492506002810190505b600a8310611d4e576001810190505b80915050919050565b611d6e81611d66611e32611e53565b63ffffffff16565b50565b60008073ffffffffffffffffffffffffffffffffffffffff168373ffffffffffffffffffffffffffffffffffffffff1614158015611e2957508273ffffffffffffffffffffffffffffffffffffffff168473ffffffffffffffffffffffffffffffffffffffff161480611dea5750611de98484610bc2565b5b80611e2857508273ffffffffffffffffffffffffffffffffffffffff16611e1083611226565b73ffffffffffffffffffffffffffffffffffffffff16145b5b90509392505050565b60006a636f6e736f6c652e6c6f679050600080835160208501845afa505050565b611e9c819050919050565b604051806080016040528060008152602001600073ffffffffffffffffffffffffffffffffffffffff16815260200160008152602001600081525090565b611ea4612b02565b565b6000604051905090565b600080fd5b600080fd5b60007fffffffff0000000000000000000000000000000000000000000000000000000082169050919050565b611eef81611eba565b8114611efa57600080fd5b50565b600081359050611f0c81611ee6565b92915050565b600060208284031215611f2857611f27611eb0565b5b6000611f3684828501611efd565b91505092915050565b60008115159050919050565b611f5481611f3f565b82525050565b6000602082019050611f6f6000830184611f4b565b92915050565b600081519050919050565b600082825260208201905092915050565b60005b83811015611faf578082015181840152602081019050611f94565b60008484015250505050565b6000601f19601f8301169050919050565b6000611fd782611f75565b611fe18185611f80565b9350611ff1818560208601611f91565b611ffa81611fbb565b840191505092915050565b6000602082019050818103600083015261201f8184611fcc565b905092915050565b6000819050919050565b61203a81612027565b811461204557600080fd5b50565b60008135905061205781612031565b92915050565b60006020828403121561207357612072611eb0565b5b600061208184828501612048565b91505092915050565b600073ffffffffffffffffffffffffffffffffffffffff82169050919050565b60006120b58261208a565b9050919050565b6120c5816120aa565b82525050565b60006020820190506120e060008301846120bc565b92915050565b6120ef816120aa565b81146120fa57600080fd5b50565b60008135905061210c816120e6565b92915050565b6000806040838503121561212957612128611eb0565b5b6000612137858286016120fd565b925050602061214885828601612048565b9150509250929050565b6000806040838503121561216957612168611eb0565b5b600061217785828601612048565b925050602061218885828601612048565b9150509250929050565b6000806000606084860312156121ab576121aa611eb0565b5b60006121b9868287016120fd565b93505060206121ca868287016120fd565b92505060406121db86828701612048565b9150509250925092565b6000819050919050565b600061220a6122056122008461208a565b6121e5565b61208a565b9050919050565b600061221c826121ef565b9050919050565b600061222e82612211565b9050919050565b61223e81612223565b82525050565b60006020820190506122596000830184612235565b92915050565b60006020828403121561227557612274611eb0565b5b6000612283848285016120fd565b91505092915050565b61229581612027565b82525050565b60006020820190506122b0600083018461228c565b92915050565b6122bf81611f3f565b81146122ca57600080fd5b50565b6000813590506122dc816122b6565b92915050565b600080604083850312156122f9576122f8611eb0565b5b6000612307858286016120fd565b9250506020612318858286016122cd565b9150509250929050565b600060608201905061233760008301866120bc565b612344602083018561228c565b612351604083018461228c565b949350505050565b600060808201905061236e600083018761228c565b61237b60208301866120bc565b612388604083018561228c565b612395606083018461228c565b95945050505050565b600080fd5b600080fd5b7f4e487b7100000000000000000000000000000000000000000000000000000000600052604160045260246000fd5b6123e082611fbb565b810181811067ffffffffffffffff821117156123ff576123fe6123a8565b5b80604052505050565b6000612412611ea6565b905061241e82826123d7565b919050565b600067ffffffffffffffff82111561243e5761243d6123a8565b5b61244782611fbb565b9050602081019050919050565b82818337600083830152505050565b600061247661247184612423565b612408565b905082815260208101848484011115612492576124916123a3565b5b61249d848285612454565b509392505050565b600082601f8301126124ba576124b961239e565b5b81356124ca848260208601612463565b91505092915050565b600080600080608085870312156124ed576124ec611eb0565b5b60006124fb878288016120fd565b945050602061250c878288016120fd565b935050604061251d87828801612048565b925050606085013567ffffffffffffffff81111561253e5761253d611eb5565b5b61254a878288016124a5565b91505092959194509250565b6000806040838503121561256d5761256c611eb0565b5b600061257b858286016120fd565b925050602061258c858286016120fd565b9150509250929050565b600081519050919050565b600082825260208201905092915050565b6000819050602082019050919050565b6125cb81612027565b82525050565b6125da816120aa565b82525050565b6080820160008201516125f660008501826125c2565b50602082015161260960208501826125d1565b50604082015161261c60408501826125c2565b50606082015161262f60608501826125c2565b50505050565b600061264183836125e0565b60808301905092915050565b6000602082019050919050565b600061266582612596565b61266f81856125a1565b935061267a836125b2565b8060005b838110156126ab5781516126928882612635565b975061269d8361264d565b92505060018101905061267e565b5085935050505092915050565b600060208201905081810360008301526126d2818461265a565b905092915050565b7f4e487b7100000000000000000000000000000000000000000000000000000000600052602260045260246000fd5b6000600282049050600182168061272157607f821691505b602082108103612734576127336126da565b5b50919050565b600060608201905061274f60008301866120bc565b61275c602083018561228c565b61276960408301846120bc565b949350505050565b600081905092915050565b600061278782611f75565b6127918185612771565b93506127a1818560208601611f91565b80840191505092915050565b60006127b9828561277c565b91506127c5828461277c565b91508190509392505050565b6000815190506127e081612031565b92915050565b6000602082840312156127fc576127fb611eb0565b5b600061280a848285016127d1565b91505092915050565b7f4e487b7100000000000000000000000000000000000000000000000000000000600052601160045260246000fd5b600061284d82612027565b915061285883612027565b92508282039050818111156128705761286f612813565b5b92915050565b600061288182612027565b915061288c83612027565b925082820261289a81612027565b915082820484148315176128b1576128b0612813565b5b5092915050565b7f4e487b7100000000000000000000000000000000000000000000000000000000600052601260045260246000fd5b60006128f282612027565b91506128fd83612027565b92508261290d5761290c6128b8565b5b828204905092915050565b600060608201905061292d60008301866120bc565b61293a60208301856120bc565b612947604083018461228c565b949350505050565b7f4e487b7100000000000000000000000000000000000000000000000000000000600052603260045260246000fd5b600061298982612027565b91507fffffffffffffffffffffffffffffffffffffffffffffffffffffffffffffffff82036129bb576129ba612813565b5b600182019050919050565b600081519050919050565b600082825260208201905092915050565b60006129ed826129c6565b6129f781856129d1565b9350612a07818560208601611f91565b612a1081611fbb565b840191505092915050565b6000608082019050612a3060008301876120bc565b612a3d60208301866120bc565b612a4a604083018561228c565b8181036060830152612a5c81846129e2565b905095945050505050565b600081519050612a7681611ee6565b92915050565b600060208284031215612a9257612a91611eb0565b5b6000612aa084828501612a67565b91505092915050565b60006040820190508181036000830152612ac38185611fcc565b9050612ad2602083018461228c565b9392505050565b6000604082019050612aee60008301856120bc565b612afb602083018461228c565b9392505050565b7f4e487b7100000000000000000000000000000000000000000000000000000000600052605160045260246000fdfea264697066735822122002117f761e7cb1ff41e7511634b1e4e0eda7f3f161c9bdb4be353e710321798464736f6c6343000814003360806040523480156200001157600080fd5b5060405162001682380380620016828339818101604052810190620000379190620001fa565b818181600390816200004a9190620004ca565b5080600490816200005c9190620004ca565b5050505050620005b1565b6000604051905090565b600080fd5b600080fd5b600080fd5b600080fd5b6000601f19601f8301169050919050565b7f4e487b7100000000000000000000000000000000000000000000000000000000600052604160045260246000fd5b620000d08262000085565b810181811067ffffffffffffffff82111715620000f257620000f162000096565b5b80604052505050565b60006200010762000067565b9050620001158282620000c5565b919050565b600067ffffffffffffffff82111562000138576200013762000096565b5b620001438262000085565b9050602081019050919050565b60005b838110156200017057808201518184015260208101905062000153565b60008484015250505050565b6000620001936200018d846200011a565b620000fb565b905082815260208101848484011115620001b257620001b162000080565b5b620001bf84828562000150565b509392505050565b600082601f830112620001df57620001de6200007b565b5b8151620001f18482602086016200017c565b91505092915050565b6000806040838503121562000214576200021362000071565b5b600083015167ffffffffffffffff81111562000235576200023462000076565b5b6200024385828601620001c7565b925050602083015167ffffffffffffffff81111562000267576200026662000076565b5b6200027585828601620001c7565b9150509250929050565b600081519050919050565b7f4e487b7100000000000000000000000000000000000000000000000000000000600052602260045260246000fd5b60006002820490506001821680620002d257607f821691505b602082108103620002e857620002e76200028a565b5b50919050565b60008190508160005260206000209050919050565b60006020601f8301049050919050565b600082821b905092915050565b600060088302620003527fffffffffffffffffffffffffffffffffffffffffffffffffffffffffffffffff8262000313565b6200035e868362000313565b95508019841693508086168417925050509392505050565b6000819050919050565b6000819050919050565b6000620003ab620003a56200039f8462000376565b62000380565b62000376565b9050919050565b6000819050919050565b620003c7836200038a565b620003df620003d682620003b2565b84845462000320565b825550505050565b600090565b620003f6620003e7565b62000403818484620003bc565b505050565b5b818110156200042b576200041f600082620003ec565b60018101905062000409565b5050565b601f8211156200047a576200044481620002ee565b6200044f8462000303565b810160208510156200045f578190505b620004776200046e8562000303565b83018262000408565b50505b505050565b600082821c905092915050565b60006200049f600019846008026200047f565b1980831691505092915050565b6000620004ba83836200048c565b9150826002028217905092915050565b620004d5826200027f565b67ffffffffffffffff811115620004f157620004f062000096565b5b620004fd8254620002b9565b6200050a8282856200042f565b600060209050601f8311600181146200054257600084156200052d578287015190505b620005398582620004ac565b865550620005a9565b601f1984166200055286620002ee565b60005b828110156200057c5784890151825560018201915060208501945060208101905062000555565b868310156200059c578489015162000598601f8916826200048c565b8355505b6001600288020188555050505b505050505050565b6110c180620005c16000396000f3fe608060405234801561001057600080fd5b50600436106100a95760003560e01c8063313ce56711610071578063313ce5671461016657806370a082311461018457806395d89b41146101b4578063a9059cbb146101d2578063dd62ed3e14610202578063eb8571c814610232576100a9565b806306fdde03146100ae578063095ea7b3146100cc57806318160ddd146100fc57806321860a051461011a57806323b872dd14610136575b600080fd5b6100b661024e565b6040516100c39190610c83565b60405180910390f35b6100e660048036038101906100e19190610d3e565b6102e0565b6040516100f39190610d99565b60405180910390f35b610104610303565b6040516101119190610dc3565b60405180910390f35b610134600480360381019061012f9190610dde565b61030d565b005b610150600480360381019061014b9190610e0b565b610407565b60405161015d9190610d99565b60405180910390f35b61016e610436565b60405161017b9190610e7a565b60405180910390f35b61019e60048036038101906101999190610dde565b61043f565b6040516101ab9190610dc3565b60405180910390f35b6101bc610487565b6040516101c99190610c83565b60405180910390f35b6101ec60048036038101906101e79190610d3e565b610519565b6040516101f99190610d99565b60405180910390f35b61021c60048036038101906102179190610e95565b61053c565b6040516102299190610dc3565b60405180910390f35b61024c60048036038101906102479190610e0b565b6105c3565b005b60606003805461025d90610f04565b80601f016020809104026020016040519081016040528092919081815260200182805461028990610f04565b80156102d65780601f106102ab576101008083540402835291602001916102d6565b820191906000526020600020905b8154815290600101906020018083116102b957829003601f168201915b5050505050905090565b6000806102eb6105d3565b90506102f88185856105db565b600191505092915050565b6000600254905090565b60001515600560008373ffffffffffffffffffffffffffffffffffffffff1673ffffffffffffffffffffffffffffffffffffffff16815260200190815260200160002060009054906101000a900460ff161515146103a0576040517f08c379a000000000000000000000000000000000000000000000000000000000815260040161039790610fa7565b60405180910390fd5b6103ac816127106105ed565b6001600560008373ffffffffffffffffffffffffffffffffffffffff1673ffffffffffffffffffffffffffffffffffffffff16815260200190815260200160002060006101000a81548160ff02191690831515021790555050565b6000806104126105d3565b905061041f85828561066f565b61042a858585610703565b60019150509392505050565b60006012905090565b60008060008373ffffffffffffffffffffffffffffffffffffffff1673ffffffffffffffffffffffffffffffffffffffff168152602001908152602001600020549050919050565b60606004805461049690610f04565b80601f01602080910402602001604051908101604052809291908181526020018280546104c290610f04565b801561050f5780601f106104e45761010080835404028352916020019161050f565b820191906000526020600020905b8154815290600101906020018083116104f257829003601f168201915b5050505050905090565b6000806105246105d3565b9050610531818585610703565b600191505092915050565b6000600160008473ffffffffffffffffffffffffffffffffffffffff1673ffffffffffffffffffffffffffffffffffffffff16815260200190815260200160002060008373ffffffffffffffffffffffffffffffffffffffff1673ffffffffffffffffffffffffffffffffffffffff16815260200190815260200160002054905092915050565b6105ce838383610703565b505050565b600033905090565b6105e883838360016107f7565b505050565b600073ffffffffffffffffffffffffffffffffffffffff168273ffffffffffffffffffffffffffffffffffffffff160361065f5760006040517fec442f050000000000000000000000000000000000000000000000000000000081526004016106569190610fd6565b60405180910390fd5b61066b600083836109ce565b5050565b600061067b848461053c565b90507fffffffffffffffffffffffffffffffffffffffffffffffffffffffffffffffff81146106fd57818110156106ed578281836040517ffb8f41b20000000000000000000000000000000000000000000000000000000081526004016106e493929190610ff1565b60405180910390fd5b6106fc848484840360006107f7565b5b50505050565b600073ffffffffffffffffffffffffffffffffffffffff168373ffffffffffffffffffffffffffffffffffffffff16036107755760006040517f96c6fd1e00000000000000000000000000000000000000000000000000000000815260040161076c9190610fd6565b60405180910390fd5b600073ffffffffffffffffffffffffffffffffffffffff168273ffffffffffffffffffffffffffffffffffffffff16036107e75760006040517fec442f050000000000000000000000000000000000000000000000000000000081526004016107de9190610fd6565b60405180910390fd5b6107f28383836109ce565b505050565b600073ffffffffffffffffffffffffffffffffffffffff168473ffffffffffffffffffffffffffffffffffffffff16036108695760006040517fe602df050000000000000000000000000000000000000000000000000000000081526004016108609190610fd6565b60405180910390fd5b600073ffffffffffffffffffffffffffffffffffffffff168373ffffffffffffffffffffffffffffffffffffffff16036108db5760006040517f94280d620000000000000000000000000000000000000000000000000000000081526004016108d29190610fd6565b60405180910390fd5b81600160008673ffffffffffffffffffffffffffffffffffffffff1673ffffffffffffffffffffffffffffffffffffffff16815260200190815260200160002060008573ffffffffffffffffffffffffffffffffffffffff1673ffffffffffffffffffffffffffffffffffffffff1681526020019081526020016000208190555080156109c8578273ffffffffffffffffffffffffffffffffffffffff168473ffffffffffffffffffffffffffffffffffffffff167f8c5be1e5ebec7d5bd14f71427d1e84f3dd0314c0f7b2291e5b200ac8c7c3b925846040516109bf9190610dc3565b60405180910390a35b50505050565b600073ffffffffffffffffffffffffffffffffffffffff168373ffffffffffffffffffffffffffffffffffffffff1603610a20578060026000828254610a149190611057565b92505081905550610af3565b60008060008573ffffffffffffffffffffffffffffffffffffffff1673ffffffffffffffffffffffffffffffffffffffff16815260200190815260200160002054905081811015610aac578381836040517fe450d38c000000000000000000000000000000000000000000000000000000008152600401610aa393929190610ff1565b60405180910390fd5b8181036000808673ffffffffffffffffffffffffffffffffffffffff1673ffffffffffffffffffffffffffffffffffffffff16815260200190815260200160002081905550505b600073ffffffffffffffffffffffffffffffffffffffff168273ffffffffffffffffffffffffffffffffffffffff1603610b3c5780600260008282540392505081905550610b89565b806000808473ffffffffffffffffffffffffffffffffffffffff1673ffffffffffffffffffffffffffffffffffffffff168152602001908152602001600020600082825401925050819055505b8173ffffffffffffffffffffffffffffffffffffffff168373ffffffffffffffffffffffffffffffffffffffff167fddf252ad1be2c89b69c2b068fc378daa952ba7f163c4a11628f55a4df523b3ef83604051610be69190610dc3565b60405180910390a3505050565b600081519050919050565b600082825260208201905092915050565b60005b83811015610c2d578082015181840152602081019050610c12565b60008484015250505050565b6000601f19601f8301169050919050565b6000610c5582610bf3565b610c5f8185610bfe565b9350610c6f818560208601610c0f565b610c7881610c39565b840191505092915050565b60006020820190508181036000830152610c9d8184610c4a565b905092915050565b600080fd5b600073ffffffffffffffffffffffffffffffffffffffff82169050919050565b6000610cd582610caa565b9050919050565b610ce581610cca565b8114610cf057600080fd5b50565b600081359050610d0281610cdc565b92915050565b6000819050919050565b610d1b81610d08565b8114610d2657600080fd5b50565b600081359050610d3881610d12565b92915050565b60008060408385031215610d5557610d54610ca5565b5b6000610d6385828601610cf3565b9250506020610d7485828601610d29565b9150509250929050565b60008115159050919050565b610d9381610d7e565b82525050565b6000602082019050610dae6000830184610d8a565b92915050565b610dbd81610d08565b82525050565b6000602082019050610dd86000830184610db4565b92915050565b600060208284031215610df457610df3610ca5565b5b6000610e0284828501610cf3565b91505092915050565b600080600060608486031215610e2457610e23610ca5565b5b6000610e3286828701610cf3565b9350506020610e4386828701610cf3565b9250506040610e5486828701610d29565b9150509250925092565b600060ff82169050919050565b610e7481610e5e565b82525050565b6000602082019050610e8f6000830184610e6b565b92915050565b60008060408385031215610eac57610eab610ca5565b5b6000610eba85828601610cf3565b9250506020610ecb85828601610cf3565b9150509250929050565b7f4e487b7100000000000000000000000000000000000000000000000000000000600052602260045260246000fd5b60006002820490506001821680610f1c57607f821691505b602082108103610f2f57610f2e610ed5565b5b50919050565b7f5468697320757365722068617320636c61696d65642061697264726f7020616c60008201527f7265616479000000000000000000000000000000000000000000000000000000602082015250565b6000610f91602583610bfe565b9150610f9c82610f35565b604082019050919050565b60006020820190508181036000830152610fc081610f84565b9050919050565b610fd081610cca565b82525050565b6000602082019050610feb6000830184610fc7565b92915050565b60006060820190506110066000830186610fc7565b6110136020830185610db4565b6110206040830184610db4565b949350505050565b7f4e487b7100000000000000000000000000000000000000000000000000000000600052601160045260246000fd5b600061106282610d08565b915061106d83610d08565b925082820190508082111561108557611084611028565b5b9291505056fea26469706673582212205c6df84cc3fc46f4752498b679e0508534a149fcb87a881d0b2be4ae6632b82764736f6c63430008140033",
  "linkReferences": {},
  "deployedLinkReferences": {}
}